M01ROUJF VT000060318 ROUGE JEAN-FRANCOIS C+000000215400        060318     235                      235     EURVTE   ROUGE JEAN-FRANCOIS             235                                                        
M70710000VT000060318AROUGE JEAN-FRANCOIS D+000000179500        060318     235                      235     EURVTE   ROUGE JEAN-FRANCOIS             235                                                        
M44571000VT000060318AROUGE JEAN-FRANCOIS D+000000035900        060318     235                      235     EURVTE   ROUGE JEAN-FRANCOIS             235                                                        
M01TOUFAIVT000080318 TOUT FAIRE MATERIAUXC+000000024000        311299     237                      237     EURVTE   TOUT FAIRE MATERIAUX AJACCIO    237                                                        
M70850000VT000080318ATOUT FAIRE MATERIAUXD+000000020000        311299     237                      237     EURVTE   TOUT FAIRE MATERIAUX AJACCIO    237                                                        
M44571000VT000080318ATOUT FAIRE MATERIAUXD+000000004000        311299     237                      237     EURVTE   TOUT FAIRE MATERIAUX AJACCIO    237                                                        
M01CB    VT000190318 COMPTANTS CB BASTIA C+000000000936        190318     240                      240     EURVTE   COMPTANTS CB BASTIA             240                                                        
M70710000VT000190318ACOMPTANTS CB BASTIA D+000000000780        190318     240                      240     EURVTE   COMPTANTS CB BASTIA             240                                                        
M44571000VT000190318ACOMPTANTS CB BASTIA D+000000000156        190318     240                      240     EURVTE   COMPTANTS CB BASTIA             240                                                        
M01RENOVIVT000010318FRENOV INTERIEUR     D+000000005809        010318     9150                     9150    EURVTE   RENOV INTERIEUR                 9150                                                       
M70710000VT000010318 RENOV INTERIEUR     C+000000004841        010318     9150                     9150    EURVTE   RENOV INTERIEUR                 9150                                                       
M44571000VT000010318 RENOV INTERIEUR     C+000000000968        010318     9150                     9150    EURVTE   RENOV INTERIEUR                 9150                                                       
M70830001VT000010318 COMPTANTS CB BASTIA C+000000019260        010318     9219                     9219    EURVTE   COMPTANTS CB BASTIA             9219                                                       
M01CB    VT000010318FCOMPTANTS CB BASTIA D+000000023112        010318     9219                     9219    EURVTE   COMPTANTS CB BASTIA             9219                                                       
M44571000VT000010318 COMPTANTS CB BASTIA C+000000003852        010318     9219                     9219    EURVTE   COMPTANTS CB BASTIA             9219                                                       
M70830001VT000010318 COMPTANTS CB BASTIA C+000000006390        010318     9220                     9220    EURVTE   COMPTANTS CB BASTIA             9220                                                       
M01CB    VT000010318FCOMPTANTS CB BASTIA D+000000009449        010318     9220                     9220    EURVTE   COMPTANTS CB BASTIA             9220                                                       
M70710000VT000010318 COMPTANTS CB BASTIA C+000000001484        010318     9220                     9220    EURVTE   COMPTANTS CB BASTIA             9220                                                       
M44571000VT000010318 COMPTANTS CB BASTIA C+000000001575        010318     9220                     9220    EURVTE   COMPTANTS CB BASTIA             9220                                                       
M70830001VT000010318 COMPTANTS CB BASTIA C+000000016655        010318     9221                     9221    EURVTE   COMPTANTS CB BASTIA             9221                                                       
M01CB    VT000010318FCOMPTANTS CB BASTIA D+000000019986        010318     9221                     9221    EURVTE   COMPTANTS CB BASTIA             9221                                                       
M44571000VT000010318 COMPTANTS CB BASTIA C+000000003331        010318     9221                     9221    EURVTE   COMPTANTS CB BASTIA             9221                                                       
M70830001VT000020318 COMPTANTS CB BASTIA C+000000002655        020318     9223                     9223    EURVTE   COMPTANTS CB BASTIA             9223                                                       
M01CB    VT000020318FCOMPTANTS CB BASTIA D+000000003186        020318     9223                     9223    EURVTE   COMPTANTS CB BASTIA             9223                                                       
M44571000VT000020318 COMPTANTS CB BASTIA C+000000000531        020318     9223                     9223    EURVTE   COMPTANTS CB BASTIA             9223                                                       
M70830001VT000020318 COMPTANTS CB BASTIA C+000000003780        020318     9224                     9224    EURVTE   COMPTANTS CB BASTIA             9224                                                       
M01CB    VT000020318FCOMPTANTS CB BASTIA D+000000004536        020318     9224                     9224    EURVTE   COMPTANTS CB BASTIA             9224                                                       
M44571000VT000020318 COMPTANTS CB BASTIA C+000000000756        020318     9224                     9224    EURVTE   COMPTANTS CB BASTIA             9224                                                       
M70830001VT000050318 COMPTANT BASTIA ESPEC+000000014648        050318     9225                     9225    EURVTE   COMPTANT BASTIA ESPECE          9225                                                       
M01ESP   VT000050318FCOMPTANT BASTIA ESPED+000000017578        050318     9225                     9225    EURVTE   COMPTANT BASTIA ESPECE          9225                                                       
M44571000VT000050318 COMPTANT BASTIA ESPEC+000000002930        050318     9225                     9225    EURVTE   COMPTANT BASTIA ESPECE          9225                                                       
M01DILEGNVT000050318FDI LEGNU SAS        D+000000036600        050318     9226                     9226    EURVTE   DI LEGNU SAS                    9226                                                       
M70710000VT000050318 DI LEGNU SAS        C+000000010700        050318     9226                     9226    EURVTE   DI LEGNU SAS                    9226                                                       
M70740000VT000050318 DI LEGNU SAS        C+000000019800        050318     9226                     9226    EURVTE   DI LEGNU SAS                    9226                                                       
M44571000VT000050318 DI LEGNU SAS        C+000000006100        050318     9226                     9226    EURVTE   DI LEGNU SAS                    9226                                                       
M70830001VT000050318 COMPTANTS CB BASTIA C+000000007470        050318     9227                     9227    EURVTE   COMPTANTS CB BASTIA             9227                                                       
M01CB    VT000050318FCOMPTANTS CB BASTIA D+000000014358        050318     9227                     9227    EURVTE   COMPTANTS CB BASTIA             9227                                                       
M70710000VT000050318 COMPTANTS CB BASTIA C+000000004495        050318     9227                     9227    EURVTE   COMPTANTS CB BASTIA             9227                                                       
M44571000VT000050318 COMPTANTS CB BASTIA C+000000002393        050318     9227                     9227    EURVTE   COMPTANTS CB BASTIA             9227                                                       
M01TTB   VT000050318FTT BAT              D+000000004800        050318     9229                     9229    EURVTE   TT BAT                          9229                                                       
M70710000VT000050318 TT BAT              C+000000004000        050318     9229                     9229    EURVTE   TT BAT                          9229                                                       
M44571000VT000050318 TT BAT              C+000000000800        050318     9229                     9229    EURVTE   TT BAT                          9229                                                       
M70830001VT000060318 COMPTANT BASTIA ESPEC+000000005500        060318     9234                     9234    EURVTE   COMPTANT BASTIA ESPECE          9234                                                       
M01ESP   VT000060318FCOMPTANT BASTIA ESPED+000000006600        060318     9234                     9234    EURVTE   COMPTANT BASTIA ESPECE          9234                                                       
M44571000VT000060318 COMPTANT BASTIA ESPEC+000000001100        060318     9234                     9234    EURVTE   COMPTANT BASTIA ESPECE          9234                                                       
M70830001VT000060318 EUROPLAC            C+000000009585        060318     9235                     9235    EURVTE   EUROPLAC                        9235                                                       
M01EUROP VT000060318FEUROPLAC            D+000000011965        060318     9235                     9235    EURVTE   EUROPLAC                        9235                                                       
M70710000VT000060318 EUROPLAC            C+000000000386        060318     9235                     9235    EURVTE   EUROPLAC                        9235                                                       
M44571000VT000060318 EUROPLAC            C+000000001994        060318     9235                     9235    EURVTE   EUROPLAC                        9235                                                       
M01ROUJF VT000060318FROUGE JEAN-FRANCOIS D+000000215400        060318     9236                     9236    EURVTE   ROUGE JEAN-FRANCOIS             9236                                                       
M70710000VT000060318 ROUGE JEAN-FRANCOIS C+000000179500        060318     9236                     9236    EURVTE   ROUGE JEAN-FRANCOIS             9236                                                       
M44571000VT000060318 ROUGE JEAN-FRANCOIS C+000000035900        060318     9236                     9236    EURVTE   ROUGE JEAN-FRANCOIS             9236                                                       
M01CB    VT000070318FCOMPTANTS CB BASTIA D+000000002424        070318     9237                     9237    EURVTE   COMPTANTS CB BASTIA             9237                                                       
M70710000VT000070318 COMPTANTS CB BASTIA C+000000002020        070318     9237                     9237    EURVTE   COMPTANTS CB BASTIA             9237                                                       
M44571000VT000070318 COMPTANTS CB BASTIA C+000000000404        070318     9237                     9237    EURVTE   COMPTANTS CB BASTIA             9237                                                       
M70600020VT000070318 SANTUCCI DOMINIQUE  C+000000002200        070318     9238                     9238    EURVTE   SANTUCCI DOMINIQUE              9238                                                       
M01SANDO VT000070318FSANTUCCI DOMINIQUE  D+000000003090        070318     9238                     9238    EURVTE   SANTUCCI DOMINIQUE              9238                                                       
M70710000VT000070318 SANTUCCI DOMINIQUE  C+000000000375        070318     9238                     9238    EURVTE   SANTUCCI DOMINIQUE              9238                                                       
M44571000VT000070318 SANTUCCI DOMINIQUE  C+000000000515        070318     9238                     9238    EURVTE   SANTUCCI DOMINIQUE              9238                                                       
M01CB    VT000070318FCOMPTANTS CB BASTIA D+000000003588        070318     9239                     9239    EURVTE   COMPTANTS CB BASTIA             9239                                                       
M70710000VT000070318 COMPTANTS CB BASTIA C+000000002990        070318     9239                     9239    EURVTE   COMPTANTS CB BASTIA             9239                                                       
M44571000VT000070318 COMPTANTS CB BASTIA C+000000000598        070318     9239                     9239    EURVTE   COMPTANTS CB BASTIA             9239                                                       
M70830001VT000080318 COMPTANTS CHEQUES BAC+000000006075        080318     9240                     9240    EURVTE   COMPTANTS CHEQUES BASTIA        9240                                                       
M01CHQ   VT000080318FCOMPTANTS CHEQUES BAD+000000007290        080318     9240                     9240    EURVTE   COMPTANTS CHEQUES BASTIA        9240                                                       
M44571000VT000080318 COMPTANTS CHEQUES BAC+000000001215        080318     9240                     9240    EURVTE   COMPTANTS CHEQUES BASTIA        9240                                                       
M01TTB   VT000080318FTT BAT              D+000000007200        080318     9241                     9241    EURVTE   TT BAT                          9241                                                       
M70710000VT000080318 TT BAT              C+000000006000        080318     9241                     9241    EURVTE   TT BAT                          9241                                                       
M44571000VT000080318 TT BAT              C+000000001200        080318     9241                     9241    EURVTE   TT BAT                          9241                                                       
M01TTB   VT000080318FTT BAT              D+000000004800        080318     9243                     9243    EURVTE   TT BAT                          9243                                                       
M70710000VT000080318 TT BAT              C+000000004000        080318     9243                     9243    EURVTE   TT BAT                          9243                                                       
M44571000VT000080318 TT BAT              C+000000000800        080318     9243                     9243    EURVTE   TT BAT                          9243                                                       
M70830001VT000080318 COMPTANTS CB BASTIA C+000000003150        080318     9244                     9244    EURVTE   COMPTANTS CB BASTIA             9244                                                       
M01CB    VT000080318FCOMPTANTS CB BASTIA D+000000003780        080318     9244                     9244    EURVTE   COMPTANTS CB BASTIA             9244                                                       
M44571000VT000080318 COMPTANTS CB BASTIA C+000000000630        080318     9244                     9244    EURVTE   COMPTANTS CB BASTIA             9244                                                       
M70830001VT000080318 BERNARDINI GERARD   C+000000001890        080318     9245                     9245    EURVTE   BERNARDINI GERARD               9245                                                       
M01BERNA VT000080318FBERNARDINI GERARD   D+000000002268        080318     9245                     9245    EURVTE   BERNARDINI GERARD               9245                                                       
M44571000VT000080318 BERNARDINI GERARD   C+000000000378        080318     9245                     9245    EURVTE   BERNARDINI GERARD               9245                                                       
M70830001VT000080318 COMPTANTS CB BASTIA C+000000001350        080318     9246                     9246    EURVTE   COMPTANTS CB BASTIA             9246                                                       
M01CB    VT000080318FCOMPTANTS CB BASTIA D+000000001620        080318     9246                     9246    EURVTE   COMPTANTS CB BASTIA             9246                                                       
M44571000VT000080318 COMPTANTS CB BASTIA C+000000000270        080318     9246                     9246    EURVTE   COMPTANTS CB BASTIA             9246                                                       
M70830001VT000090318 COMPTANTS CB BASTIA C+000000006390        090318     9247                     9247    EURVTE   COMPTANTS CB BASTIA             9247                                                       
M01CB    VT000090318FCOMPTANTS CB BASTIA D+000000008177        090318     9247                     9247    EURVTE   COMPTANTS CB BASTIA             9247                                                       
M70710000VT000090318 COMPTANTS CB BASTIA C+000000000424        090318     9247                     9247    EURVTE   COMPTANTS CB BASTIA             9247                                                       
M44571000VT000090318 COMPTANTS CB BASTIA C+000000001363        090318     9247                     9247    EURVTE   COMPTANTS CB BASTIA             9247                                                       
M01CB    VT000090318FCOMPTANTS CB BASTIA D+000000001162        090318     9248                     9248    EURVTE   COMPTANTS CB BASTIA             9248                                                       
M70710000VT000090318 COMPTANTS CB BASTIA C+000000000968        090318     9248                     9248    EURVTE   COMPTANTS CB BASTIA             9248                                                       
M44571000VT000090318 COMPTANTS CB BASTIA C+000000000194        090318     9248                     9248    EURVTE   COMPTANTS CB BASTIA             9248                                                       
M70830001VT000090318 COMPTANT BASTIA ESPEC+000000007605        090318     9249                     9249    EURVTE   COMPTANT BASTIA ESPECE          9249                                                       
M01ESP   VT000090318FCOMPTANT BASTIA ESPED+000000013648        090318     9249                     9249    EURVTE   COMPTANT BASTIA ESPECE          9249                                                       
M70710000VT000090318 COMPTANT BASTIA ESPEC+000000003768        090318     9249                     9249    EURVTE   COMPTANT BASTIA ESPECE          9249                                                       
M44571000VT000090318 COMPTANT BASTIA ESPEC+000000002275        090318     9249                     9249    EURVTE   COMPTANT BASTIA ESPECE          9249                                                       
M70830001VT000090318 CRISTINI FRANCK     C+000000005625        090318     9251                     9251    EURVTE   CRISTINI FRANCK                 9251                                                       
M01CRISTIVT000090318FCRISTINI FRANCK     D+000000006750        090318     9251                     9251    EURVTE   CRISTINI FRANCK                 9251                                                       
M44571000VT000090318 CRISTINI FRANCK     C+000000001125        090318     9251                     9251    EURVTE   CRISTINI FRANCK                 9251                                                       
M70830001VT000090318 CASTEL BRANDO HOTEL C+000000035420        090318     9252                     9252    EURVTE   CASTEL BRANDO HOTEL             9252                                                       
M01CASTEBVT000090318FCASTEL BRANDO HOTEL D+000000042504        090318     9252                     9252    EURVTE   CASTEL BRANDO HOTEL             9252                                                       
M44571000VT000090318 CASTEL BRANDO HOTEL C+000000007084        090318     9252                     9252    EURVTE   CASTEL BRANDO HOTEL             9252                                                       
M01ROUJF VT000090318FROUGE JEAN-FRANCOIS D+000000206400        090318     9253                     9253    EURVTE   ROUGE JEAN-FRANCOIS             9253                                                       
M70740000VT000090318 ROUGE JEAN-FRANCOIS C+000000172000        090318     9253                     9253    EURVTE   ROUGE JEAN-FRANCOIS             9253                                                       
M44571000VT000090318 ROUGE JEAN-FRANCOIS C+000000034400        090318     9253                     9253    EURVTE   ROUGE JEAN-FRANCOIS             9253                                                       
M70830001VT000120318 CORSE BTP           C+000000003960        120318     9254                     9254    EURVTE   CORSE BTP                       9254                                                       
M01COBTP VT000120318FCORSE BTP           D+000000004752        120318     9254                     9254    EURVTE   CORSE BTP                       9254                                                       
M44571000VT000120318 CORSE BTP           C+000000000792        120318     9254                     9254    EURVTE   CORSE BTP                       9254                                                       
M70830001VT000120318 COMPTANTS CB BASTIA C+000000004793        120318     9255                     9255    EURVTE   COMPTANTS CB BASTIA             9255                                                       
M01CB    VT000120318FCOMPTANTS CB BASTIA D+000000005752        120318     9255                     9255    EURVTE   COMPTANTS CB BASTIA             9255                                                       
M44571000VT000120318 COMPTANTS CB BASTIA C+000000000959        120318     9255                     9255    EURVTE   COMPTANTS CB BASTIA             9255                                                       
M01COLOM VT000120318FCOLOMBANI PIERRE    D+000000002400        120318     9256                     9256    EURVTE   COLOMBANI PIERRE                9256                                                       
M70720000VT000120318 COLOMBANI PIERRE    C+000000002000        120318     9256                     9256    EURVTE   COLOMBANI PIERRE                9256                                                       
M44571000VT000120318 COLOMBANI PIERRE    C+000000000400        120318     9256                     9256    EURVTE   COLOMBANI PIERRE                9256                                                       
M01CB    VT000130318FCOMPTANTS CB BASTIA D+000000005880        130318     9257                     9257    EURVTE   COMPTANTS CB BASTIA             9257                                                       
M70710000VT000130318 COMPTANTS CB BASTIA C+000000004900        130318     9257                     9257    EURVTE   COMPTANTS CB BASTIA             9257                                                       
M44571000VT000130318 COMPTANTS CB BASTIA C+000000000980        130318     9257                     9257    EURVTE   COMPTANTS CB BASTIA             9257                                                       
M70830001VT000130318 COMPTANTS CB BASTIA C+000000007100        130318     9258                     9258    EURVTE   COMPTANTS CB BASTIA             9258                                                       
M01CB    VT000130318FCOMPTANTS CB BASTIA D+000000009720        130318     9258                     9258    EURVTE   COMPTANTS CB BASTIA             9258                                                       
M70710000VT000130318 COMPTANTS CB BASTIA C+000000001000        130318     9258                     9258    EURVTE   COMPTANTS CB BASTIA             9258                                                       
M44571000VT000130318 COMPTANTS CB BASTIA C+000000001620        130318     9258                     9258    EURVTE   COMPTANTS CB BASTIA             9258                                                       
M70830001VT000130318 COMPTANTS CB BASTIA C+000000034400        130318     9259                     9259    EURVTE   COMPTANTS CB BASTIA             9259                                                       
M01CB    VT000130318FCOMPTANTS CB BASTIA D+000000041280        130318     9259                     9259    EURVTE   COMPTANTS CB BASTIA             9259                                                       
M44571000VT000130318 COMPTANTS CB BASTIA C+000000006880        130318     9259                     9259    EURVTE   COMPTANTS CB BASTIA             9259                                                       
M70830001VT000140318 COMPTANTS CB BASTIA C+000000005625        140318     9260                     9260    EURVTE   COMPTANTS CB BASTIA             9260                                                       
M01CB    VT000140318FCOMPTANTS CB BASTIA D+000000014898        140318     9260                     9260    EURVTE   COMPTANTS CB BASTIA             9260                                                       
M70710000VT000140318 COMPTANTS CB BASTIA C+000000006790        140318     9260                     9260    EURVTE   COMPTANTS CB BASTIA             9260                                                       
M44571000VT000140318 COMPTANTS CB BASTIA C+000000002483        140318     9260                     9260    EURVTE   COMPTANTS CB BASTIA             9260                                                       
M70830001VT000140318 MAHAMMED OUSTANI    C+000000015390        140318     9261                     9261    EURVTE   MAHAMMED OUSTANI                9261                                                       
M01OUSTANVT000140318FMAHAMMED OUSTANI    D+000000018468        140318     9261                     9261    EURVTE   MAHAMMED OUSTANI                9261                                                       
M44571000VT000140318 MAHAMMED OUSTANI    C+000000003078        140318     9261                     9261    EURVTE   MAHAMMED OUSTANI                9261                                                       
M70830001VT000140318 COMPTANTS CHEQUES BAC+000000008438        140318     9262                     9262    EURVTE   COMPTANTS CHEQUES BASTIA        9262                                                       
M01CHQ   VT000140318FCOMPTANTS CHEQUES BAD+000000010126        140318     9262                     9262    EURVTE   COMPTANTS CHEQUES BASTIA        9262                                                       
M44571000VT000140318 COMPTANTS CHEQUES BAC+000000001688        140318     9262                     9262    EURVTE   COMPTANTS CHEQUES BASTIA        9262                                                       
M01BOUDE VT000140318FBOUDEGHDEGH SAMIR   D+000000002450        140318     9263                     9263    EURVTE   BOUDEGHDEGH SAMIR               9263                                                       
M70720000VT000140318 BOUDEGHDEGH SAMIR   C+000000002042        140318     9263                     9263    EURVTE   BOUDEGHDEGH SAMIR               9263                                                       
M44571000VT000140318 BOUDEGHDEGH SAMIR   C+000000000408        140318     9263                     9263    EURVTE   BOUDEGHDEGH SAMIR               9263                                                       
M70830001VT000150318 COMPTANT BASTIA ESPEC+000000012100        150318     9264                     9264    EURVTE   COMPTANT BASTIA ESPECE          9264                                                       
M01ESP   VT000150318FCOMPTANT BASTIA ESPED+000000015660        150318     9264                     9264    EURVTE   COMPTANT BASTIA ESPECE          9264                                                       
M70710000VT000150318 COMPTANT BASTIA ESPEC+000000000950        150318     9264                     9264    EURVTE   COMPTANT BASTIA ESPECE          9264                                                       
M44571000VT000150318 COMPTANT BASTIA ESPEC+000000002610        150318     9264                     9264    EURVTE   COMPTANT BASTIA ESPECE          9264                                                       
M70600020VT000150318 ARBOUHI SARL        C+000000006800        150318     9268                     9268    EURVTE   ARBOUHI SARL                    9268                                                       
M01ARBHO VT000150318FARBOUHI SARL        D+000000011800        150318     9268                     9268    EURVTE   ARBOUHI SARL                    9268                                                       
M70710000VT000150318 ARBOUHI SARL        C+000000000375        150318     9268                     9268    EURVTE   ARBOUHI SARL                    9268                                                       
M70720000VT000150318 ARBOUHI SARL        C+000000002658        150318     9268                     9268    EURVTE   ARBOUHI SARL                    9268                                                       
M44571000VT000150318 ARBOUHI SARL        C+000000001967        150318     9268                     9268    EURVTE   ARBOUHI SARL                    9268                                                       
M70600020VT000150318 ARBOUHI SARL        C+000000006800        150318     9269                     9269    EURVTE   ARBOUHI SARL                    9269                                                       
M01ARBHO VT000150318FARBOUHI SARL        D+000000008610        150318     9269                     9269    EURVTE   ARBOUHI SARL                    9269                                                       
M70710000VT000150318 ARBOUHI SARL        C+000000000375        150318     9269                     9269    EURVTE   ARBOUHI SARL                    9269                                                       
M44571000VT000150318 ARBOUHI SARL        C+000000001435        150318     9269                     9269    EURVTE   ARBOUHI SARL                    9269                                                       
M70830001VT000150318 COMPTANT BASTIA ESPEC+000000001350        150318     9270                     9270    EURVTE   COMPTANT BASTIA ESPECE          9270                                                       
M01ESP   VT000150318FCOMPTANT BASTIA ESPED+000000001620        150318     9270                     9270    EURVTE   COMPTANT BASTIA ESPECE          9270                                                       
M44571000VT000150318 COMPTANT BASTIA ESPEC+000000000270        150318     9270                     9270    EURVTE   COMPTANT BASTIA ESPECE          9270                                                       
M70830001VT000150318 COMPTANT BASTIA ESPEC+000000003200        150318     9271                     9271    EURVTE   COMPTANT BASTIA ESPECE          9271                                                       
M01ESP   VT000150318FCOMPTANT BASTIA ESPED+000000003840        150318     9271                     9271    EURVTE   COMPTANT BASTIA ESPECE          9271                                                       
M44571000VT000150318 COMPTANT BASTIA ESPEC+000000000640        150318     9271                     9271    EURVTE   COMPTANT BASTIA ESPECE          9271                                                       
M70830001VT000150318 COMPTANTS CB BASTIA C+000000007100        150318     9272                     9272    EURVTE   COMPTANTS CB BASTIA             9272                                                       
M01CB    VT000150318FCOMPTANTS CB BASTIA D+000000009910        150318     9272                     9272    EURVTE   COMPTANTS CB BASTIA             9272                                                       
M70710000VT000150318 COMPTANTS CB BASTIA C+000000001158        150318     9272                     9272    EURVTE   COMPTANTS CB BASTIA             9272                                                       
M44571000VT000150318 COMPTANTS CB BASTIA C+000000001652        150318     9272                     9272    EURVTE   COMPTANTS CB BASTIA             9272                                                       
M70830001VT000160318 COMPTANT BASTIA ESPEC+000000006250        160318     9273                     9273    EURVTE   COMPTANT BASTIA ESPECE          9273                                                       
M01ESP   VT000160318FCOMPTANT BASTIA ESPED+000000010272        160318     9273                     9273    EURVTE   COMPTANT BASTIA ESPECE          9273                                                       
M70710000VT000160318 COMPTANT BASTIA ESPEC+000000002310        160318     9273                     9273    EURVTE   COMPTANT BASTIA ESPECE          9273                                                       
M44571000VT000160318 COMPTANT BASTIA ESPEC+000000001712        160318     9273                     9273    EURVTE   COMPTANT BASTIA ESPECE          9273                                                       
M01BERG  VT000160318FBERNARDINI GERARD   D+000000001746        160318     9274                     9274    EURVTE   BERNARDINI GERARD               9274                                                       
M70710000VT000160318 BERNARDINI GERARD   C+000000001455        160318     9274                     9274    EURVTE   BERNARDINI GERARD               9274                                                       
M44571000VT000160318 BERNARDINI GERARD   C+000000000291        160318     9274                     9274    EURVTE   BERNARDINI GERARD               9274                                                       
M70600020VT000160318 DURET  DANIEL       C+000000001400        160318     9275                     9275    EURVTE   DURET  DANIEL                   9275                                                       
M01DURET VT000160318FDURET  DANIEL       D+000000003830        160318     9275                     9275    EURVTE   DURET  DANIEL                   9275                                                       
M70710000VT000160318 DURET  DANIEL       C+000000000375        160318     9275                     9275    EURVTE   DURET  DANIEL                   9275                                                       
M70720000VT000160318 DURET  DANIEL       C+000000001417        160318     9275                     9275    EURVTE   DURET  DANIEL                   9275                                                       
M44571000VT000160318 DURET  DANIEL       C+000000000638        160318     9275                     9275    EURVTE   DURET  DANIEL                   9275                                                       
M70600020VT000160318 MARCHI DENIS        C+000000004000        160318     9276                     9276    EURVTE   MARCHI DENIS                    9276                                                       
M01MARCHIVT000160318FMARCHI DENIS        D+000000010384        160318     9276                     9276    EURVTE   MARCHI DENIS                    9276                                                       
M70720000VT000160318 MARCHI DENIS        C+000000002658        160318     9276                     9276    EURVTE   MARCHI DENIS                    9276                                                       
M70710000VT000160318 MARCHI DENIS        C+000000001995        160318     9276                     9276    EURVTE   MARCHI DENIS                    9276                                                       
M44571000VT000160318 MARCHI DENIS        C+000000001731        160318     9276                     9276    EURVTE   MARCHI DENIS                    9276                                                       
M70830001VT000160318 COMPTANTS CB BASTIA C+000000003850        160318     9277                     9277    EURVTE   COMPTANTS CB BASTIA             9277                                                       
M01CB    VT000160318FCOMPTANTS CB BASTIA D+000000005760        160318     9277                     9277    EURVTE   COMPTANTS CB BASTIA             9277                                                       
M70710000VT000160318 COMPTANTS CB BASTIA C+000000000950        160318     9277                     9277    EURVTE   COMPTANTS CB BASTIA             9277                                                       
M44571000VT000160318 COMPTANTS CB BASTIA C+000000000960        160318     9277                     9277    EURVTE   COMPTANTS CB BASTIA             9277                                                       
M70830001VT000160318 COMPTANTS CB BASTIA C+000000008450        160318     9278                     9278    EURVTE   COMPTANTS CB BASTIA             9278                                                       
M01CB    VT000160318FCOMPTANTS CB BASTIA D+000000012012        160318     9278                     9278    EURVTE   COMPTANTS CB BASTIA             9278                                                       
M70710000VT000160318 COMPTANTS CB BASTIA C+000000001560        160318     9278                     9278    EURVTE   COMPTANTS CB BASTIA             9278                                                       
M44571000VT000160318 COMPTANTS CB BASTIA C+000000002002        160318     9278                     9278    EURVTE   COMPTANTS CB BASTIA             9278                                                       
M70830001VT000160318 EUROPLAC            C+000000006390        160318     9279                     9279    EURVTE   EUROPLAC                        9279                                                       
M01EUROP VT000160318FEUROPLAC            D+000000008363        160318     9279                     9279    EURVTE   EUROPLAC                        9279                                                       
M70710000VT000160318 EUROPLAC            C+000000000579        160318     9279                     9279    EURVTE   EUROPLAC                        9279                                                       
M44571000VT000160318 EUROPLAC            C+000000001394        160318     9279                     9279    EURVTE   EUROPLAC                        9279                                                       
M70830001VT000190318 COMPTANTS CB BASTIA C+000000003550        190318     9280                     9280    EURVTE   COMPTANTS CB BASTIA             9280                                                       
M01CB    VT000190318FCOMPTANTS CB BASTIA D+000000004260        190318     9280                     9280    EURVTE   COMPTANTS CB BASTIA             9280                                                       
M44571000VT000190318 COMPTANTS CB BASTIA C+000000000710        190318     9280                     9280    EURVTE   COMPTANTS CB BASTIA             9280                                                       
M70830001VT000190318 COMPTANTS CB BASTIA C+000000001775        190318     9281                     9281    EURVTE   COMPTANTS CB BASTIA             9281                                                       
M01CB    VT000190318FCOMPTANTS CB BASTIA D+000000002130        190318     9281                     9281    EURVTE   COMPTANTS CB BASTIA             9281                                                       
M44571000VT000190318 COMPTANTS CB BASTIA C+000000000355        190318     9281                     9281    EURVTE   COMPTANTS CB BASTIA             9281                                                       
M01CARPE VT000190318FTROPICAL LIVING SARLD+000000003000        190318     9282                     9282    EURVTE   TROPICAL LIVING SARL            9282                                                       
M70710000VT000190318 TROPICAL LIVING SARLC+000000002500        190318     9282                     9282    EURVTE   TROPICAL LIVING SARL            9282                                                       
M44571000VT000190318 TROPICAL LIVING SARLC+000000000500        190318     9282                     9282    EURVTE   TROPICAL LIVING SARL            9282                                                       
M01GUID  VT000190318FGIUDICELLI STEPHANE D+000000005845        190318     9283                     9283    EURVTE   GIUDICELLI STEPHANE             9283                                                       
M70740000VT000190318 GIUDICELLI STEPHANE C+000000004871        190318     9283                     9283    EURVTE   GIUDICELLI STEPHANE             9283                                                       
M44571000VT000190318 GIUDICELLI STEPHANE C+000000000974        190318     9283                     9283    EURVTE   GIUDICELLI STEPHANE             9283                                                       
M70830001VT000200318 CORSE BTP           C+000000017460        200318     9284                     9284    EURVTE   CORSE BTP                       9284                                                       
M01COBTP VT000200318FCORSE BTP           D+000000022404        200318     9284                     9284    EURVTE   CORSE BTP                       9284                                                       
M70710000VT000200318 CORSE BTP           C+000000001210        200318     9284                     9284    EURVTE   CORSE BTP                       9284                                                       
M44571000VT000200318 CORSE BTP           C+000000003734        200318     9284                     9284    EURVTE   CORSE BTP                       9284                                                       
M70830001VT000210318 COMPTANTS CB BASTIA C+000000002655        210318     9285                     9285    EURVTE   COMPTANTS CB BASTIA             9285                                                       
M01CB    VT000210318FCOMPTANTS CB BASTIA D+000000003186        210318     9285                     9285    EURVTE   COMPTANTS CB BASTIA             9285                                                       
M44571000VT000210318 COMPTANTS CB BASTIA C+000000000531        210318     9285                     9285    EURVTE   COMPTANTS CB BASTIA             9285                                                       
M70830001VT000210318 COMPTANTS CB BASTIA C+000000012780        210318     9286                     9286    EURVTE   COMPTANTS CB BASTIA             9286                                                       
M01CB    VT000210318FCOMPTANTS CB BASTIA D+000000017738        210318     9286                     9286    EURVTE   COMPTANTS CB BASTIA             9286                                                       
M70710000VT000210318 COMPTANTS CB BASTIA C+000000002002        210318     9286                     9286    EURVTE   COMPTANTS CB BASTIA             9286                                                       
M44571000VT000210318 COMPTANTS CB BASTIA C+000000002956        210318     9286                     9286    EURVTE   COMPTANTS CB BASTIA             9286                                                       
M70600020VT000220318 CRISTIANI BAPTISTE  C+000000003200        220318     9288                     9288    EURVTE   CRISTIANI BAPTISTE              9288                                                       
M01CRISTBVT000220318FCRISTIANI BAPTISTE  D+000000009750        220318     9288                     9288    EURVTE   CRISTIANI BAPTISTE              9288                                                       
M70710000VT000220318 CRISTIANI BAPTISTE  C+000000000375        220318     9288                     9288    EURVTE   CRISTIANI BAPTISTE              9288                                                       
M70720000VT000220318 CRISTIANI BAPTISTE  C+000000004550        220318     9288                     9288    EURVTE   CRISTIANI BAPTISTE              9288                                                       
M44571000VT000220318 CRISTIANI BAPTISTE  C+000000001625        220318     9288                     9288    EURVTE   CRISTIANI BAPTISTE              9288                                                       
M70830001VT000220318 COMPTANTS CB BASTIA C+000000001350        220318     9289                     9289    EURVTE   COMPTANTS CB BASTIA             9289                                                       
M01CB    VT000220318FCOMPTANTS CB BASTIA D+000000001620        220318     9289                     9289    EURVTE   COMPTANTS CB BASTIA             9289                                                       
M44571000VT000220318 COMPTANTS CB BASTIA C+000000000270        220318     9289                     9289    EURVTE   COMPTANTS CB BASTIA             9289                                                       
M70600020VT000230318 PASTINELLI ADRIEN   C+000000002000        230318     9290                     9290    EURVTE   PASTINELLI ADRIEN               9290                                                       
M01PASAD VT000230318FPASTINELLI ADRIEN   D+000000013189        230318     9290                     9290    EURVTE   PASTINELLI ADRIEN               9290                                                       
M70720000VT000230318 PASTINELLI ADRIEN   C+000000008616        230318     9290                     9290    EURVTE   PASTINELLI ADRIEN               9290                                                       
M70710000VT000230318 PASTINELLI ADRIEN   C+000000000375        230318     9290                     9290    EURVTE   PASTINELLI ADRIEN               9290                                                       
M44571000VT000230318 PASTINELLI ADRIEN   C+000000002198        230318     9290                     9290    EURVTE   PASTINELLI ADRIEN               9290                                                       
M01CB    VT000230318FCOMPTANTS CB BASTIA D+000000022800        230318     9291                     9291    EURVTE   COMPTANTS CB BASTIA             9291                                                       
M70710000VT000230318 COMPTANTS CB BASTIA C+000000019000        230318     9291                     9291    EURVTE   COMPTANTS CB BASTIA             9291                                                       
M44571000VT000230318 COMPTANTS CB BASTIA C+000000003800        230318     9291                     9291    EURVTE   COMPTANTS CB BASTIA             9291                                                       
M70830001VT000230318 SCI SAINT MICHEL    C+000000003150        230318     9292                     9292    EURVTE   SCI SAINT MICHEL                9292                                                       
M01STMIC VT000230318FSCI SAINT MICHEL    D+000000003780        230318     9292                     9292    EURVTE   SCI SAINT MICHEL                9292                                                       
M44571000VT000230318 SCI SAINT MICHEL    C+000000000630        230318     9292                     9292    EURVTE   SCI SAINT MICHEL                9292                                                       
M70830001VT000230318 AZUR PEINTURE       C+000000006075        230318     9293                     9293    EURVTE   AZUR PEINTURE                   9293                                                       
M01AZUR  VT000230318FAZUR PEINTURE       D+000000007290        230318     9293                     9293    EURVTE   AZUR PEINTURE                   9293                                                       
M44571000VT000230318 AZUR PEINTURE       C+000000001215        230318     9293                     9293    EURVTE   AZUR PEINTURE                   9293                                                       
M01LCK   VT000230318FLCK                 D+000000005809        230318     9294                     9294    EURVTE   LCK                             9294                                                       
M70710000VT000230318 LCK                 C+000000004841        230318     9294                     9294    EURVTE   LCK                             9294                                                       
M44571000VT000230318 LCK                 C+000000000968        230318     9294                     9294    EURVTE   LCK                             9294                                                       
M70830001VT000230318 CG CONSTRUCTION     C+000000005445        230318     9295                     9295    EURVTE   CG CONSTRUCTION                 9295                                                       
M01CGCON VT000230318FCG CONSTRUCTION     D+000000006534        230318     9295                     9295    EURVTE   CG CONSTRUCTION                 9295                                                       
M44571000VT000230318 CG CONSTRUCTION     C+000000001089        230318     9295                     9295    EURVTE   CG CONSTRUCTION                 9295                                                       
M70830001VT000260318 COMPTANTS CB BASTIA C+000000046113        260318     9296                     9296    EURVTE   COMPTANTS CB BASTIA             9296                                                       
M01CB    VT000260318FCOMPTANTS CB BASTIA D+000000055336        260318     9296                     9296    EURVTE   COMPTANTS CB BASTIA             9296                                                       
M44571000VT000260318 COMPTANTS CB BASTIA C+000000009223        260318     9296                     9296    EURVTE   COMPTANTS CB BASTIA             9296                                                       
M70830001VT000260318 CORSE BTP           C+000000007155        260318     9297                     9297    EURVTE   CORSE BTP                       9297                                                       
M01COBTP VT000260318FCORSE BTP           D+000000008586        260318     9297                     9297    EURVTE   CORSE BTP                       9297                                                       
M44571000VT000260318 CORSE BTP           C+000000001431        260318     9297                     9297    EURVTE   CORSE BTP                       9297                                                       
M70830001VT000260318 TOMCIK LUDOVIT      C+000000003443        260318     9298                     9298    EURVTE   TOMCIK LUDOVIT                  9298                                                       
M01TOMCIKVT000260318FTOMCIK LUDOVIT      D+000000004132        260318     9298                     9298    EURVTE   TOMCIK LUDOVIT                  9298                                                       
M44571000VT000260318 TOMCIK LUDOVIT      C+000000000689        260318     9298                     9298    EURVTE   TOMCIK LUDOVIT                  9298                                                       
M70830001VT000260318 LE JARDIN D'ANTOINE C+000000010193        260318     9299                     9299    EURVTE   LE JARDIN D'ANTOINE             9299                                                       
M01LEJAR VT000260318FLE JARDIN D'ANTOINE D+000000012232        260318     9299                     9299    EURVTE   LE JARDIN D'ANTOINE             9299                                                       
M44571000VT000260318 LE JARDIN D'ANTOINE C+000000002039        260318     9299                     9299    EURVTE   LE JARDIN D'ANTOINE             9299                                                       
M01MONCATVT000260318FMON CATAMARAN       D+000000006180        260318     9300                     9300    EURVTE   MON CATAMARAN                   9300                                                       
M70720000VT000260318 MON CATAMARAN       C+000000005150        260318     9300                     9300    EURVTE   MON CATAMARAN                   9300                                                       
M44571000VT000260318 MON CATAMARAN       C+000000001030        260318     9300                     9300    EURVTE   MON CATAMARAN                   9300                                                       
M01ESP   VT000270318FCOMPTANT BASTIA ESPED+000000000798        270318     9301                     9301    EURVTE   COMPTANT BASTIA ESPECE          9301                                                       
M70710000VT000270318 COMPTANT BASTIA ESPEC+000000000665        270318     9301                     9301    EURVTE   COMPTANT BASTIA ESPECE          9301                                                       
M44571000VT000270318 COMPTANT BASTIA ESPEC+000000000133        270318     9301                     9301    EURVTE   COMPTANT BASTIA ESPECE          9301                                                       
M70830001VT000270318 COMPTANTS CB BASTIA C+000000015300        270318     9302                     9302    EURVTE   COMPTANTS CB BASTIA             9302                                                       
M01CB    VT000270318FCOMPTANTS CB BASTIA D+000000018360        270318     9302                     9302    EURVTE   COMPTANTS CB BASTIA             9302                                                       
M44571000VT000270318 COMPTANTS CB BASTIA C+000000003060        270318     9302                     9302    EURVTE   COMPTANTS CB BASTIA             9302                                                       
M70830001VT000270318 COMPTANTS CB BASTIA C+000000006320        270318     9303                     9303    EURVTE   COMPTANTS CB BASTIA             9303                                                       
M01CB    VT000270318FCOMPTANTS CB BASTIA D+000000007584        270318     9303                     9303    EURVTE   COMPTANTS CB BASTIA             9303                                                       
M44571000VT000270318 COMPTANTS CB BASTIA C+000000001264        270318     9303                     9303    EURVTE   COMPTANTS CB BASTIA             9303                                                       
M70830001VT000270318 COMPTANTS CB BASTIA C+000000003550        270318     9304                     9304    EURVTE   COMPTANTS CB BASTIA             9304                                                       
M01CB    VT000270318FCOMPTANTS CB BASTIA D+000000004260        270318     9304                     9304    EURVTE   COMPTANTS CB BASTIA             9304                                                       
M44571000VT000270318 COMPTANTS CB BASTIA C+000000000710        270318     9304                     9304    EURVTE   COMPTANTS CB BASTIA             9304                                                       
M70830001VT000270318 COMPTANTS CB BASTIA C+000000012500        270318     9305                     9305    EURVTE   COMPTANTS CB BASTIA             9305                                                       
M01CB    VT000270318FCOMPTANTS CB BASTIA D+000000018576        270318     9305                     9305    EURVTE   COMPTANTS CB BASTIA             9305                                                       
M70710000VT000270318 COMPTANTS CB BASTIA C+000000002980        270318     9305                     9305    EURVTE   COMPTANTS CB BASTIA             9305                                                       
M44571000VT000270318 COMPTANTS CB BASTIA C+000000003096        270318     9305                     9305    EURVTE   COMPTANTS CB BASTIA             9305                                                       
M70600020VT000270318 BENAZZI ANTOINE     C+000000002000        270318     9306                     9306    EURVTE   BENAZZI ANTOINE                 9306                                                       
M01BENAN VT000270318FBENAZZI ANTOINE     D+000000005840        270318     9306                     9306    EURVTE   BENAZZI ANTOINE                 9306                                                       
M70710000VT000270318 BENAZZI ANTOINE     C+000000000375        270318     9306                     9306    EURVTE   BENAZZI ANTOINE                 9306                                                       
M70720000VT000270318 BENAZZI ANTOINE     C+000000002492        270318     9306                     9306    EURVTE   BENAZZI ANTOINE                 9306                                                       
M44571000VT000270318 BENAZZI ANTOINE     C+000000000973        270318     9306                     9306    EURVTE   BENAZZI ANTOINE                 9306                                                       
M01ESP   VT000270318FCOMPTANT BASTIA ESPED+000000000600        270318     9307                     9307    EURVTE   COMPTANT BASTIA ESPECE          9307                                                       
M70710000VT000270318 COMPTANT BASTIA ESPEC+000000000500        270318     9307                     9307    EURVTE   COMPTANT BASTIA ESPECE          9307                                                       
M44571000VT000270318 COMPTANT BASTIA ESPEC+000000000100        270318     9307                     9307    EURVTE   COMPTANT BASTIA ESPECE          9307                                                       
M01CB    VT000280318FCOMPTANTS CB BASTIA D+000000008797        280318     9308                     9308    EURVTE   COMPTANTS CB BASTIA             9308                                                       
M70710000VT000280318 COMPTANTS CB BASTIA C+000000007331        280318     9308                     9308    EURVTE   COMPTANTS CB BASTIA             9308                                                       
M44571000VT000280318 COMPTANTS CB BASTIA C+000000001466        280318     9308                     9308    EURVTE   COMPTANTS CB BASTIA             9308                                                       
M70600020VT000280318 SEMI FRANCE         C+000000122290        300418     9309                     9309    EURVTE   SEMI FRANCE                     9309                                                       
M01SEMFR VT000280318FSEMI FRANCE         D+000000146748        300418     9309                     9309    EURVTE   SEMI FRANCE                     9309                                                       
M44571000VT000280318 SEMI FRANCE         C+000000024458        300418     9309                     9309    EURVTE   SEMI FRANCE                     9309                                                       
M70830001VT000280318 COMPTANTS CB BASTIA C+000000016920        280318     9310                     9310    EURVTE   COMPTANTS CB BASTIA             9310                                                       
M01CB    VT000280318FCOMPTANTS CB BASTIA D+000000020304        280318     9310                     9310    EURVTE   COMPTANTS CB BASTIA             9310                                                       
M44571000VT000280318 COMPTANTS CB BASTIA C+000000003384        280318     9310                     9310    EURVTE   COMPTANTS CB BASTIA             9310                                                       
M70830001VT000280318 COMPTANTS CB BASTIA C+000000003550        280318     9311                     9311    EURVTE   COMPTANTS CB BASTIA             9311                                                       
M01CB    VT000280318FCOMPTANTS CB BASTIA D+000000004260        280318     9311                     9311    EURVTE   COMPTANTS CB BASTIA             9311                                                       
M44571000VT000280318 COMPTANTS CB BASTIA C+000000000710        280318     9311                     9311    EURVTE   COMPTANTS CB BASTIA             9311                                                       
M70830001VT000280318 COMPTANTS CB BASTIA C+000000007155        280318     9312                     9312    EURVTE   COMPTANTS CB BASTIA             9312                                                       
M01CB    VT000280318FCOMPTANTS CB BASTIA D+000000008586        280318     9312                     9312    EURVTE   COMPTANTS CB BASTIA             9312                                                       
M44571000VT000280318 COMPTANTS CB BASTIA C+000000001431        280318     9312                     9312    EURVTE   COMPTANTS CB BASTIA             9312                                                       
M70830001VT000290318 COMPTANTS CB BASTIA C+000000005000        290318     9313                     9313    EURVTE   COMPTANTS CB BASTIA             9313                                                       
M01CB    VT000290318FCOMPTANTS CB BASTIA D+000000006000        290318     9313                     9313    EURVTE   COMPTANTS CB BASTIA             9313                                                       
M44571000VT000290318 COMPTANTS CB BASTIA C+000000001000        290318     9313                     9313    EURVTE   COMPTANTS CB BASTIA             9313                                                       
M70830001VT000290318 LE JARDIN D'ANTOINE C+000000007605        290318     9314                     9314    EURVTE   LE JARDIN D'ANTOINE             9314                                                       
M01LEJAR VT000290318FLE JARDIN D'ANTOINE D+000000013398        290318     9314                     9314    EURVTE   LE JARDIN D'ANTOINE             9314                                                       
M70710000VT000290318 LE JARDIN D'ANTOINE C+000000003560        290318     9314                     9314    EURVTE   LE JARDIN D'ANTOINE             9314                                                       
M44571000VT000290318 LE JARDIN D'ANTOINE C+000000002233        290318     9314                     9314    EURVTE   LE JARDIN D'ANTOINE             9314                                                       
M70850000VT000290318 COMPTANTS CB BASTIA C+000000000650        290318     9315                     9315    EURVTE   COMPTANTS CB BASTIA             9315                                                       
M01CB    VT000290318FCOMPTANTS CB BASTIA D+000000002220        290318     9315                     9315    EURVTE   COMPTANTS CB BASTIA             9315                                                       
M70720000VT000290318 COMPTANTS CB BASTIA C+000000001200        290318     9315                     9315    EURVTE   COMPTANTS CB BASTIA             9315                                                       
M44571000VT000290318 COMPTANTS CB BASTIA C+000000000370        290318     9315                     9315    EURVTE   COMPTANTS CB BASTIA             9315                                                       
M70830001VT000290318 COMPTANTS CB BASTIA C+000000028215        290318     9316                     9316    EURVTE   COMPTANTS CB BASTIA             9316                                                       
M01CB    VT000290318FCOMPTANTS CB BASTIA D+000000071778        290318     9316                     9316    EURVTE   COMPTANTS CB BASTIA             9316                                                       
M70740000VT000290318 COMPTANTS CB BASTIA C+000000031600        290318     9316                     9316    EURVTE   COMPTANTS CB BASTIA             9316                                                       
M44571000VT000290318 COMPTANTS CB BASTIA C+000000011963        290318     9316                     9316    EURVTE   COMPTANTS CB BASTIA             9316                                                       
M01ESP   VT000290318FCOMPTANT BASTIA ESPED+000000001790        290318     9317                     9317    EURVTE   COMPTANT BASTIA ESPECE          9317                                                       
M70720000VT000290318 COMPTANT BASTIA ESPEC+000000001492        290318     9317                     9317    EURVTE   COMPTANT BASTIA ESPECE          9317                                                       
M44571000VT000290318 COMPTANT BASTIA ESPEC+000000000298        290318     9317                     9317    EURVTE   COMPTANT BASTIA ESPECE          9317                                                       
M70850000VT000290318 COMPTANTS CB BASTIA C+000000000650        290318     9318                     9318    EURVTE   COMPTANTS CB BASTIA             9318                                                       
M01CB    VT000290318FCOMPTANTS CB BASTIA D+000000002420        290318     9318                     9318    EURVTE   COMPTANTS CB BASTIA             9318                                                       
M70720000VT000290318 COMPTANTS CB BASTIA C+000000001367        290318     9318                     9318    EURVTE   COMPTANTS CB BASTIA             9318                                                       
M44571000VT000290318 COMPTANTS CB BASTIA C+000000000403        290318     9318                     9318    EURVTE   COMPTANTS CB BASTIA             9318                                                       
M70830001VT000290318 COMPTANTS CB BASTIA C+000000016760        290318     9319                     9319    EURVTE   COMPTANTS CB BASTIA             9319                                                       
M01CB    VT000290318FCOMPTANTS CB BASTIA D+000000031728        290318     9319                     9319    EURVTE   COMPTANTS CB BASTIA             9319                                                       
M70710000VT000290318 COMPTANTS CB BASTIA C+000000009680        290318     9319                     9319    EURVTE   COMPTANTS CB BASTIA             9319                                                       
M44571000VT000290318 COMPTANTS CB BASTIA C+000000005288        290318     9319                     9319    EURVTE   COMPTANTS CB BASTIA             9319                                                       
M70830001VT000290318 TOMCIK LUDOVIT      C+000000002295        290318     9320                     9320    EURVTE   TOMCIK LUDOVIT                  9320                                                       
M01TOMCIKVT000290318FTOMCIK LUDOVIT      D+000000002754        290318     9320                     9320    EURVTE   TOMCIK LUDOVIT                  9320                                                       
M44571000VT000290318 TOMCIK LUDOVIT      C+000000000459        290318     9320                     9320    EURVTE   TOMCIK LUDOVIT                  9320                                                       
M70830001VT000290318 CORSE BTP           C+000000004770        290318     9321                     9321    EURVTE   CORSE BTP                       9321                                                       
M01COBTP VT000290318FCORSE BTP           D+000000005724        290318     9321                     9321    EURVTE   CORSE BTP                       9321                                                       
M44571000VT000290318 CORSE BTP           C+000000000954        290318     9321                     9321    EURVTE   CORSE BTP                       9321                                                       
M01MARCHIVT000300318FMARCHI DENIS        D+000000001068        300318     9322                     9322    EURVTE   MARCHI DENIS                    9322                                                       
M70710000VT000300318 MARCHI DENIS        C+000000000890        300318     9322                     9322    EURVTE   MARCHI DENIS                    9322                                                       
M44571000VT000300318 MARCHI DENIS        C+000000000178        300318     9322                     9322    EURVTE   MARCHI DENIS                    9322                                                       
M70830001VT000300318 DI LEGNU SAS        C+000000026000        300318     9323                     9323    EURVTE   DI LEGNU SAS                    9323                                                       
M01DILEGNVT000300318FDI LEGNU SAS        D+000000031200        300318     9323                     9323    EURVTE   DI LEGNU SAS                    9323                                                       
M44571000VT000300318 DI LEGNU SAS        C+000000005200        300318     9323                     9323    EURVTE   DI LEGNU SAS                    9323                                                       
M70830001VT000300318 COMPTANTS CB BASTIA C+000000002000        300318     9324                     9324    EURVTE   COMPTANTS CB BASTIA             9324                                                       
M01CB    VT000300318FCOMPTANTS CB BASTIA D+000000002400        300318     9324                     9324    EURVTE   COMPTANTS CB BASTIA             9324                                                       
M44571000VT000300318 COMPTANTS CB BASTIA C+000000000400        300318     9324                     9324    EURVTE   COMPTANTS CB BASTIA             9324                                                       
M01ISTEC VT000300318FISOL'TECH           D+000000008280        300318     9325                     9325    EURVTE   ISOL'TECH                       9325                                                       
M70710000VT000300318 ISOL'TECH           C+000000006900        300318     9325                     9325    EURVTE   ISOL'TECH                       9325                                                       
M44571000VT000300318 ISOL'TECH           C+000000001380        300318     9325                     9325    EURVTE   ISOL'TECH                       9325                                                       
M70600020VT000300318 MIRKA               C+000000012000        311299     9326                     9326    EURVTE   MIRKA                           9326                                                       
M01MIRKA VT000300318FMIRKA               D+000000079296        311299     9326                     9326    EURVTE   MIRKA                           9326                                                       
M70710000VT000300318 MIRKA               C+000000007557        311299     9326                     9326    EURVTE   MIRKA                           9326                                                       
M70720000VT000300318 MIRKA               C+000000046523        311299     9326                     9326    EURVTE   MIRKA                           9326                                                       
M44571000VT000300318 MIRKA               C+000000013216        311299     9326                     9326    EURVTE   MIRKA                           9326                                                       
M70600020VT000300318 ROBERT BOSCH FRANCE C+000000008780        300418     9327                     9327    EURVTE   ROBERT BOSCH FRANCE             9327                                                       
M01BOSCH VT000300318FROBERT BOSCH FRANCE D+000000043484        300418     9327                     9327    EURVTE   ROBERT BOSCH FRANCE             9327                                                       
M70720000VT000300318 ROBERT BOSCH FRANCE C+000000027457        300418     9327                     9327    EURVTE   ROBERT BOSCH FRANCE             9327                                                       
M44571000VT000300318 ROBERT BOSCH FRANCE C+000000007247        300418     9327                     9327    EURVTE   ROBERT BOSCH FRANCE             9327                                                       
M70830001VT000300318 COMPTANTS CB BASTIA C+000000001350        300318     9328                     9328    EURVTE   COMPTANTS CB BASTIA             9328                                                       
M01CB    VT000300318FCOMPTANTS CB BASTIA D+000000001620        300318     9328                     9328    EURVTE   COMPTANTS CB BASTIA             9328                                                       
M44571000VT000300318 COMPTANTS CB BASTIA C+000000000270        300318     9328                     9328    EURVTE   COMPTANTS CB BASTIA             9328                                                       
M01CB    VT000300318FCOMPTANTS CB BASTIA D+000000001650        300318     9329                     9329    EURVTE   COMPTANTS CB BASTIA             9329                                                       
M70720000VT000300318 COMPTANTS CB BASTIA C+000000001375        300318     9329                     9329    EURVTE   COMPTANTS CB BASTIA             9329                                                       
M44571000VT000300318 COMPTANTS CB BASTIA C+000000000275        300318     9329                     9329    EURVTE   COMPTANTS CB BASTIA             9329                                                       
M70830001VT000300318 COMPTANTS CHEQUES BAC+000000007605        300318     9330                     9330    EURVTE   COMPTANTS CHEQUES BASTIA        9330                                                       
M01CHQ   VT000300318FCOMPTANTS CHEQUES BAD+000000010998        300318     9330                     9330    EURVTE   COMPTANTS CHEQUES BASTIA        9330                                                       
M70710000VT000300318 COMPTANTS CHEQUES BAC+000000001560        300318     9330                     9330    EURVTE   COMPTANTS CHEQUES BASTIA        9330                                                       
M44571000VT000300318 COMPTANTS CHEQUES BAC+000000001833        300318     9330                     9330    EURVTE   COMPTANTS CHEQUES BASTIA        9330                                                       
M70830001VT000300318 COMPTANTS CB BASTIA C+000000003780        300318     9331                     9331    EURVTE   COMPTANTS CB BASTIA             9331                                                       
M01CB    VT000300318FCOMPTANTS CB BASTIA D+000000004536        300318     9331                     9331    EURVTE   COMPTANTS CB BASTIA             9331                                                       
M44571000VT000300318 COMPTANTS CB BASTIA C+000000000756        300318     9331                     9331    EURVTE   COMPTANTS CB BASTIA             9331                                                       
M70830001VT000300318 KALLISTE CONSTRUCTIOC+000000016408        300318     9332                     9332    EURVTE   KALLISTE CONSTRUCTIONS          9332                                                       
M01KALCO VT000300318FKALLISTE CONSTRUCTIOD+000000019690        300318     9332                     9332    EURVTE   KALLISTE CONSTRUCTIONS          9332                                                       
M44571000VT000300318 KALLISTE CONSTRUCTIOC+000000003282        300318     9332                     9332    EURVTE   KALLISTE CONSTRUCTIONS          9332                                                       
M70830001VT000300318 NIDEC ASI SA        C+000000068355        300418     9333                     9333    EURVTE   NIDEC ASI SA                    9333                                                       
M01NIDEC VT000300318FNIDEC ASI SA        D+000000082026        300418     9333                     9333    EURVTE   NIDEC ASI SA                    9333                                                       
M44571000VT000300318 NIDEC ASI SA        C+000000013671        300418     9333                     9333    EURVTE   NIDEC ASI SA                    9333                                                       
M70830001VT000300318 HA CONSTRUCTION     C+000000006390        300318     9334                     9334    EURVTE   HA CONSTRUCTION                 9334                                                       
M01HACONSVT000300318FHA CONSTRUCTION     D+000000007668        300318     9334                     9334    EURVTE   HA CONSTRUCTION                 9334                                                       
M44571000VT000300318 HA CONSTRUCTION     C+000000001278        300318     9334                     9334    EURVTE   HA CONSTRUCTION                 9334                                                       
M01ACHOUDVT000310318FACHHOUD FOUAD       D+000000005191        300418     9336                     9336    EURVTE   ACHHOUD FOUAD                   9336                                                       
M70710000VT000310318 ACHHOUD FOUAD       C+000000004326        300418     9336                     9336    EURVTE   ACHHOUD FOUAD                   9336                                                       
M44571000VT000310318 ACHHOUD FOUAD       C+000000000865        300418     9336                     9336    EURVTE   ACHHOUD FOUAD                   9336                                                       
M70830001VT000310318 WELDOM PORTO VECCHIOC+000000204076        300418     9337                     9337    EURVTE   WELDOM PORTO VECCHIO - CEMAG    9337                                                       
M70600020VT000310318 WELDOM PORTO VECCHIOC+000000008000        300418     9337                     9337    EURVTE   WELDOM PORTO VECCHIO - CEMAG    9337                                                       
M01WELPOVVT000310318FWELDOM PORTO VECCHIOD+000000254941        300418     9337                     9337    EURVTE   WELDOM PORTO VECCHIO - CEMAG    9337                                                       
M70710000VT000310318 WELDOM PORTO VECCHIOC+000000000375        300418     9337                     9337    EURVTE   WELDOM PORTO VECCHIO - CEMAG    9337                                                       
M44571000VT000310318 WELDOM PORTO VECCHIOC+000000042490        300418     9337                     9337    EURVTE   WELDOM PORTO VECCHIO - CEMAG    9337                                                       
M70850000VT000310318 TOUT FAIRE MATERIAUXC+000000050000        150518     9338                     9338    EURVTE   TOUT FAIRE MATERIAUX AJACCIO    9338                                                       
M70600020VT000310318 TOUT FAIRE MATERIAUXC+000000271435        150518     9338                     9338    EURVTE   TOUT FAIRE MATERIAUX AJACCIO    9338                                                       
M70830001VT000310318 TOUT FAIRE MATERIAUXC+000002972374        150518     9338                     9338    EURVTE   TOUT FAIRE MATERIAUX AJACCIO    9338                                                       
M01TOUFAIVT000310318FTOUT FAIRE MATERIAUXD+000003997620        150518     9338                     9338    EURVTE   TOUT FAIRE MATERIAUX AJACCIO    9338                                                       
M70720000VT000310318 TOUT FAIRE MATERIAUXC+000000037541        150518     9338                     9338    EURVTE   TOUT FAIRE MATERIAUX AJACCIO    9338                                                       
M44571000VT000310318 TOUT FAIRE MATERIAUXC+000000666270        150518     9338                     9338    EURVTE   TOUT FAIRE MATERIAUX AJACCIO    9338                                                       
M70850000VT000310318 TERRACO TERRASSEMENTC+000000001400        310518     9339                     9339    EURVTE   TERRACO TERRASSEMENTS CORSES    9339                                                       
M01TERR  VT000310318FTERRACO TERRASSEMENTD+000000024270        310518     9339                     9339    EURVTE   TERRACO TERRASSEMENTS CORSES    9339                                                       
M70720000VT000310318 TERRACO TERRASSEMENTC+000000018825        310518     9339                     9339    EURVTE   TERRACO TERRASSEMENTS CORSES    9339                                                       
M44571000VT000310318 TERRACO TERRASSEMENTC+000000004045        310518     9339                     9339    EURVTE   TERRACO TERRASSEMENTS CORSES    9339                                                       
M70830001VT000310318 SPB                 C+000000123655        300418     9340                     9340    EURVTE   SPB                             9340                                                       
M01Z1650 VT000310318FSPB                 D+000000148386        300418     9340                     9340    EURVTE   SPB                             9340                                                       
M44571000VT000310318 SPB                 C+000000024731        300418     9340                     9340    EURVTE   SPB                             9340                                                       
M70830001VT000310318 SML BTP SAS         C+000000244000        150518     9341                     9341    EURVTE   SML BTP SAS                     9341                                                       
M01SMLBTPVT000310318FSML BTP SAS         D+000000301108        150518     9341                     9341    EURVTE   SML BTP SAS                     9341                                                       
M70710000VT000310318 SML BTP SAS         C+000000001365        150518     9341                     9341    EURVTE   SML BTP SAS                     9341                                                       
M70720000VT000310318 SML BTP SAS         C+000000005558        150518     9341                     9341    EURVTE   SML BTP SAS                     9341                                                       
M44571000VT000310318 SML BTP SAS         C+000000050185        150518     9341                     9341    EURVTE   SML BTP SAS                     9341                                                       
M70850000VT000310318 A.I.TEC - AGENCE PACC+000000060000        300418     9344                     9344    EURVTE   A.I.TEC - AGENCE PACA INCENDIE  9344                                                       
M70830001VT000310318 A.I.TEC - AGENCE PACC+000000062688        300418     9344                     9344    EURVTE   A.I.TEC - AGENCE PACA INCENDIE  9344                                                       
M01AITEC VT000310318FA.I.TEC - AGENCE PACD+000000147226        300418     9344                     9344    EURVTE   A.I.TEC - AGENCE PACA INCENDIE  9344                                                       
M44571000VT000310318 A.I.TEC - AGENCE PACC+000000024538        300418     9344                     9344    EURVTE   A.I.TEC - AGENCE PACA INCENDIE  9344                                                       
M70830001VT000310318 AAI-ATLANTIQUE AUTOMC+000000016000        300418     9345                     9345    EURVTE   AAI-ATLANTIQUE AUTOMATISMES IN  9345                                                       
M70850000VT000310318 AAI-ATLANTIQUE AUTOMC+000000060000        300418     9345                     9345    EURVTE   AAI-ATLANTIQUE AUTOMATISMES IN  9345                                                       
M01AAI   VT000310318FAAI-ATLANTIQUE AUTOMD+000000091200        300418     9345                     9345    EURVTE   AAI-ATLANTIQUE AUTOMATISMES IN  9345                                                       
M44571000VT000310318 AAI-ATLANTIQUE AUTOMC+000000015200        300418     9345                     9345    EURVTE   AAI-ATLANTIQUE AUTOMATISMES IN  9345                                                       
M70850000VT000310318 AEGC                C+000000080000        300418     9346                     9346    EURVTE   AEGC                            9346                                                       
M01AEGC  VT000310318FAEGC                D+000000096000        300418     9346                     9346    EURVTE   AEGC                            9346                                                       
M44571000VT000310318 AEGC                C+000000016000        300418     9346                     9346    EURVTE   AEGC                            9346                                                       
M70830001VT000310318 AFO SARL            C+000000245000        150518     9347                     9347    EURVTE   AFO SARL                        9347                                                       
M01AFOSARVT000310318FAFO SARL            D+000000294000        150518     9347                     9347    EURVTE   AFO SARL                        9347                                                       
M44571000VT000310318 AFO SARL            C+000000049000        150518     9347                     9347    EURVTE   AFO SARL                        9347                                                       
M70830001VT000310318 ALT ANCRE           C+000000124000        230318     9348                     9348    EURVTE   ALT ANCRE                       9348                                                       
M70850000VT000310318 ALT ANCRE           C+000000180000        230318     9348                     9348    EURVTE   ALT ANCRE                       9348                                                       
M01ALTANCVT000310318FALT ANCRE           D+000000364800        230318     9348                     9348    EURVTE   ALT ANCRE                       9348                                                       
M44571000VT000310318 ALT ANCRE           C+000000060800        230318     9348                     9348    EURVTE   ALT ANCRE                       9348                                                       
M70830001VT000310318 ALTERNATIF 2B       C+000000030940        300418     9349                     9349    EURVTE   ALTERNATIF 2B                   9349                                                       
M01ALT2B VT000310318FALTERNATIF 2B       D+000000037128        300418     9349                     9349    EURVTE   ALTERNATIF 2B                   9349                                                       
M44571000VT000310318 ALTERNATIF 2B       C+000000006188        300418     9349                     9349    EURVTE   ALTERNATIF 2B                   9349                                                       
M70830001VT000310318 ANTONIOTTI SAS      C+000000022050        300418     9350                     9350    EURVTE   ANTONIOTTI SAS                  9350                                                       
M01SASANTVT000310318FANTONIOTTI SAS      D+000000029160        300418     9350                     9350    EURVTE   ANTONIOTTI SAS                  9350                                                       
M70710000VT000310318 ANTONIOTTI SAS      C+000000002250        300418     9350                     9350    EURVTE   ANTONIOTTI SAS                  9350                                                       
M44571000VT000310318 ANTONIOTTI SAS      C+000000004860        300418     9350                     9350    EURVTE   ANTONIOTTI SAS                  9350                                                       
M70830001VT000310318 BARTOLI PEINTURES   C+000000004815        300418     9351                     9351    EURVTE   BARTOLI PEINTURES               9351                                                       
M01BARTOLVT000310318FBARTOLI PEINTURES   D+000000006066        300418     9351                     9351    EURVTE   BARTOLI PEINTURES               9351                                                       
M70710000VT000310318 BARTOLI PEINTURES   C+000000000240        300418     9351                     9351    EURVTE   BARTOLI PEINTURES               9351                                                       
M44571000VT000310318 BARTOLI PEINTURES   C+000000001011        300418     9351                     9351    EURVTE   BARTOLI PEINTURES               9351                                                       
M70830001VT000310318 BCA SARL            C+000000225000        150518     9353                     9353    EURVTE   BCA SARL                        9353                                                       
M01BCA   VT000310318FBCA SARL            D+000000270000        150518     9353                     9353    EURVTE   BCA SARL                        9353                                                       
M44571000VT000310318 BCA SARL            C+000000045000        150518     9353                     9353    EURVTE   BCA SARL                        9353                                                       
M70830001VT000310318 BENOIT SKIBIK - CLEAC+000000011655        300418     9354                     9354    EURVTE   BENOIT SKIBIK - CLEAN PISCINE   9354                                                       
M01SKIBIKVT000310318FBENOIT SKIBIK - CLEAD+000000013986        300418     9354                     9354    EURVTE   BENOIT SKIBIK - CLEAN PISCINE   9354                                                       
M44571000VT000310318 BENOIT SKIBIK - CLEAC+000000002331        300418     9354                     9354    EURVTE   BENOIT SKIBIK - CLEAN PISCINE   9354                                                       
M70850000VT000310318 BERNARD STEPHANE MR C+000000001600        300418     9355                     9355    EURVTE   BERNARD STEPHANE MR             9355                                                       
M70600020VT000310318 BERNARD STEPHANE MR C+000000004000        300418     9355                     9355    EURVTE   BERNARD STEPHANE MR             9355                                                       
M01STEBERVT000310318FBERNARD STEPHANE MR D+000000027694        300418     9355                     9355    EURVTE   BERNARD STEPHANE MR             9355                                                       
M70710000VT000310318 BERNARD STEPHANE MR C+000000000375        300418     9355                     9355    EURVTE   BERNARD STEPHANE MR             9355                                                       
M70720000VT000310318 BERNARD STEPHANE MR C+000000017103        300418     9355                     9355    EURVTE   BERNARD STEPHANE MR             9355                                                       
M44571000VT000310318 BERNARD STEPHANE MR C+000000004616        300418     9355                     9355    EURVTE   BERNARD STEPHANE MR             9355                                                       
M70830001VT000310318 BRANDO BTP SARL     C+000000006300        300418     9356                     9356    EURVTE   BRANDO BTP SARL                 9356                                                       
M01BRAND VT000310318FBRANDO BTP SARL     D+000000009710        300418     9356                     9356    EURVTE   BRANDO BTP SARL                 9356                                                       
M70720000VT000310318 BRANDO BTP SARL     C+000000001792        300418     9356                     9356    EURVTE   BRANDO BTP SARL                 9356                                                       
M44571000VT000310318 BRANDO BTP SARL     C+000000001618        300418     9356                     9356    EURVTE   BRANDO BTP SARL                 9356                                                       
M01CASASAVT000310318FCASANOVA SARL       D+000000034080        280318     9357                     9357    EURVTE   CASANOVA SARL                   9357                                                       
M70710000VT000310318 CASANOVA SARL       C+000000028400        280318     9357                     9357    EURVTE   CASANOVA SARL                   9357                                                       
M44571000VT000310318 CASANOVA SARL       C+000000005680        280318     9357                     9357    EURVTE   CASANOVA SARL                   9357                                                       
M70830001VT000310318 CORDOLIANI GUILLAUMEC+000000203970        300418     9358                     9358    EURVTE   CORDOLIANI GUILLAUME            9358                                                       
M70850000VT000310318 CORDOLIANI GUILLAUMEC+000000040000        300418     9358                     9358    EURVTE   CORDOLIANI GUILLAUME            9358                                                       
M01CORDOLVT000310318FCORDOLIANI GUILLAUMED+000000304764        300418     9358                     9358    EURVTE   CORDOLIANI GUILLAUME            9358                                                       
M70710000VT000310318 CORDOLIANI GUILLAUMEC+000000010000        300418     9358                     9358    EURVTE   CORDOLIANI GUILLAUME            9358                                                       
M44571000VT000310318 CORDOLIANI GUILLAUMEC+000000050794        300418     9358                     9358    EURVTE   CORDOLIANI GUILLAUME            9358                                                       
M70850000VT000310318 CORSE PROPRE SERVICEC+000000012800        300418     9359                     9359    EURVTE   CORSE PROPRE SERVICES           9359                                                       
M70830001VT000310318 CORSE PROPRE SERVICEC+000000028908        300418     9359                     9359    EURVTE   CORSE PROPRE SERVICES           9359                                                       
M01CORPS VT000310318FCORSE PROPRE SERVICED+000000055859        300418     9359                     9359    EURVTE   CORSE PROPRE SERVICES           9359                                                       
M70710000VT000310318 CORSE PROPRE SERVICEC+000000004841        300418     9359                     9359    EURVTE   CORSE PROPRE SERVICES           9359                                                       
M44571000VT000310318 CORSE PROPRE SERVICEC+000000009310        300418     9359                     9359    EURVTE   CORSE PROPRE SERVICES           9359                                                       
M70830001VT000310318 CORSICA CONSTRUCTIONC+000000040040        300418     9360                     9360    EURVTE   CORSICA CONSTRUCTION            9360                                                       
M01CORCONVT000310318FCORSICA CONSTRUCTIOND+000000048048        300418     9360                     9360    EURVTE   CORSICA CONSTRUCTION            9360                                                       
M44571000VT000310318 CORSICA CONSTRUCTIONC+000000008008        300418     9360                     9360    EURVTE   CORSICA CONSTRUCTION            9360                                                       
M70830001VT000310318 CORSICA SPORT LOISIRC+000000003195        270318     9361                     9361    EURVTE   CORSICA SPORT LOISIR            9361                                                       
M01CORSPLVT000310318FCORSICA SPORT LOISIRD+000000003834        270318     9361                     9361    EURVTE   CORSICA SPORT LOISIR            9361                                                       
M44571000VT000310318 CORSICA SPORT LOISIRC+000000000639        270318     9361                     9361    EURVTE   CORSICA SPORT LOISIR            9361                                                       
M70850000VT000310318 CORSTYRENE          C+000000030000        300418     9362                     9362    EURVTE   CORSTYRENE                      9362                                                       
M70830001VT000310318 CORSTYRENE          C+000000011600        300418     9362                     9362    EURVTE   CORSTYRENE                      9362                                                       
M01CORSTYVT000310318FCORSTYRENE          D+000000049920        300418     9362                     9362    EURVTE   CORSTYRENE                      9362                                                       
M44571000VT000310318 CORSTYRENE          C+000000008320        300418     9362                     9362    EURVTE   CORSTYRENE                      9362                                                       
M01COVIAGVT000310318FCOVIAG              D+000000013637        310518     9363                     9363    EURVTE   COVIAG                          9363                                                       
M70710000VT000310318 COVIAG              C+000000011364        310518     9363                     9363    EURVTE   COVIAG                          9363                                                       
M44571000VT000310318 COVIAG              C+000000002273        310518     9363                     9363    EURVTE   COVIAG                          9363                                                       
M70830001VT000310318 CP PLOMBERIE        C+000000017460        300418     9364                     9364    EURVTE   CP PLOMBERIE                    9364                                                       
M01CPPLOMVT000310318FCP PLOMBERIE        D+000000020952        300418     9364                     9364    EURVTE   CP PLOMBERIE                    9364                                                       
M44571000VT000310318 CP PLOMBERIE        C+000000003492        300418     9364                     9364    EURVTE   CP PLOMBERIE                    9364                                                       
M70830001VT000310318 DAUGAS PEINTURE     C+000000007605        300418     9365                     9365    EURVTE   DAUGAS PEINTURE                 9365                                                       
M01DAUGASVT000310318FDAUGAS PEINTURE     D+000000009126        300418     9365                     9365    EURVTE   DAUGAS PEINTURE                 9365                                                       
M44571000VT000310318 DAUGAS PEINTURE     C+000000001521        300418     9365                     9365    EURVTE   DAUGAS PEINTURE                 9365                                                       
M01DAUGASVT000310318FDAUGAS PEINTURE     D+000000024170        300418     9366                     9366    EURVTE   DAUGAS PEINTURE                 9366                                                       
M70710000VT000310318 DAUGAS PEINTURE     C+000000020142        300418     9366                     9366    EURVTE   DAUGAS PEINTURE                 9366                                                       
M44571000VT000310318 DAUGAS PEINTURE     C+000000004028        300418     9366                     9366    EURVTE   DAUGAS PEINTURE                 9366                                                       
M70600020VT000310318 DODDOLI DECORATION SC+000000006000        280318     9367                     9367    EURVTE   DODDOLI DECORATION SASU         9367                                                       
M01DDECO VT000310318FDODDOLI DECORATION SD+000000009880        280318     9367                     9367    EURVTE   DODDOLI DECORATION SASU         9367                                                       
M70710000VT000310318 DODDOLI DECORATION SC+000000000375        280318     9367                     9367    EURVTE   DODDOLI DECORATION SASU         9367                                                       
M70720000VT000310318 DODDOLI DECORATION SC+000000001858        280318     9367                     9367    EURVTE   DODDOLI DECORATION SASU         9367                                                       
M44571000VT000310318 DODDOLI DECORATION SC+000000001647        280318     9367                     9367    EURVTE   DODDOLI DECORATION SASU         9367                                                       
M70600020VT000310318 EGB VENTURA DOMINIQUC+000000012000        300418     9368                     9368    EURVTE   EGB VENTURA DOMINIQUE           9368                                                       
M01EGB   VT000310318FEGB VENTURA DOMINIQUD+000000095621        300418     9368                     9368    EURVTE   EGB VENTURA DOMINIQUE           9368                                                       
M70740000VT000310318 EGB VENTURA DOMINIQUC+000000006700        300418     9368                     9368    EURVTE   EGB VENTURA DOMINIQUE           9368                                                       
